:020000040000FA
:0600000003EF0EF01200F8
:020006000000F8
:08000800800EE66EE66AE66A6E
:0C00100026EC0DF0E552E552E55212001E
:02001C001200D0
:0600200003EF0EF01200D8
:0A002600D9CFE6FFE1CFD9FF020EAB
:10003000E126800EE66EB1D8E552F90EDBCFE6FF81
:10004000FA0EDBCFE6FFFB0EDBCFE6FFFC0EDBCFCD
:10005000E6FFFD0EDBCFE6FFFE0EDBCFE6FFB0D8FE
:10006000006E060EE15E0050F90EDB50600B606E14
:10007000F90EDB50100BFF0801E1608460CF50FFE8
:10008000F70EE66EE66AE66AE66AE66AE66A8EDA1F
:10009000006E060EE15E0050F70EE66EE66AE66A56
:1000A000E66AE66A010EE66E81DA006E060EE15E31
:1000B0000050F90EDB50600B9F09BF0A0CE0600A8C
:1000C00005E0DF68DE52F70EDD6E09D0F70EDF6E59
:1000D000DE52DD6E04D0DF68010EDB6800D0DFCFBA
:1000E000E6FFE66AE66AE66AE66AE66A95DA006EBE
:1000F000060EE15E0050DFCFE6FFE66AE66AE66ADA
:10010000E66A010EE66E88DA006E060EE15E0050C9
:10011000010EDBCFE6FFE66AE66AE66AE66A020EF1
:10012000E66E7ADA006E060EE15E0050010EDBCF5D
:10013000E6FFE66AE66AE66AE66A030EE66E6CDAEF
:10014000006E060EE15E0050010EDBCFE6FFE66AB0
:10015000E66AE66AE66A040EE66E5EDA006E060E8F
:10016000E15E0050010EDBCFE6FFE66AE66AE66A72
:10017000E66A050EE66E50DA006E060EE15E00508D
:10018000E66A0BD8E552020EE15C02E2E16AE55252
:10019000E16EE552E7CFD9FF1200D9CFE6FFE1CFFC
:1001A000D9FFFE0EDB506F6EE00E6E14006EFE0E79
:1001B000DB50005C01E0F8D7E552E7CFD9FF120031
:1001C000D9CFE6FFE1CFD9FFFE0EDB06FD0EDB0641
:1001D000FC0EDB06FB0EDB06FA0EDB06FE0EDB502A
:1001E000400DF350706EFD0EDB507012FC0EDB50B4
:1001F000080DF350716EFA0EDB507112F90EDBA48C
:10020000718CDBB0718EFB0EDB50726EF90EDBB2BF
:10021000728CE552E7CFD9FF1200D9CFE6FFE1CFCC
:10022000D9FF020EE126D950F90F006EFF0EDA2039
:10023000016E00C0DEFF01C0DDFFF80EDBA63BD083
:10024000DECFE9FFDDCFEAFFEF50E840E840E840CD
:100250001F0BE66EFD0EDBCFE9FFFE0EDBCFEAFFE4
:10026000E552E750EF6EDECFE9FFDDCFEAFFEE5259
:10027000EF50200DF3CF00F0FD0EDBCFE9FFFE0EB7
:10028000DBCFEAFF0050EF12FD0EDB2AFE0E01E38A
:10029000DB2ADECFE9FFDDCFEAFFEF50200DF35080
:1002A000E66EFD0EDBCFE9FFFE0EDBCFEAFFE55287
:1002B000E750EF6E88D0DECFE9FFDDCFEAFF020E18
:1002C000E926000EEA22EF50E00BE838E840E66E3F
:1002D000FD0EDBCFE9FFFE0EDBCFEAFFE552E75074
:1002E000EF6EDECFE9FFDDCFEAFF030EE926000E59
:1002F000EA22EF50080DF3CF00F0FD0EDBCFE9FF4F
:10030000FE0EDBCFEAFF0050EF12FD0EDB2AFE0EE1
:1003100001E3DB2ADECFE9FFDDCFEAFF020EE926AB
:10032000000EEA22EF50080DF350E00BE66EFD0ED2
:10033000DBCFE9FFFE0EDBCFEAFFE552E750EF6EC1
:10034000FD0EDBCFE9FFFE0EDBCFEAFFEF86DECF4F
:10035000E9FFDDCFEAFF020EE926000EEA22EF50A8
:10036000030B006EFD0EDBCFE9FFFE0EDBCFEAFFD5
:100370000050EF12FD0EDB2AFE0E01E3DB2ADECF7A
:10038000E9FFDDCFEAFFEE52EF50E66EFD0EDBCF68
:10039000E9FFFE0EDBCFEAFFE552E750EF6EFD0E00
:1003A000DB2AFE0E01E3DB2ADECFE9FFDDCFEAFF29
:1003B000EF50E66EFD0EDBCFE9FFFE0EDBCFEAFF6E
:1003C000E552E750EF6E020EE15C02E2E16AE552AF
:1003D000E16EE552E7CFD9FF1200D9CFE6FFE1CFBA
:1003E000D9FF020EE126FB0EDBCFDEFFDBCFDDFF08
:1003F000FA0EDBA64DD0FD0EDBCFE9FFFE0EDBCF04
:10040000EAFFEF50080DF350E66EDECFE9FFDDCFD7
:10041000EAFFE552E750EF6EFD0EDBCFE9FFFE0E7F
:10042000DBCFEAFFEF50E00BE838E840E66EDECFC6
:10043000E9FFDDCFEAFFEE52E552E750EF6EFD0E29
:10044000DB2AFE0E01E3DB2AFD0EDBCFE9FFFE0E09
:10045000DBCFEAFFEF50E00BE838E840006EDECF7C
:10046000E9FFDDCFEAFF0050EF12DECFE9FFDDCF7D
:10047000EAFF020EE926000EEA22EF6ADECFE9FF6C
:10048000DDCFEAFF030EE926000EEA22EF6A84D0F0
:10049000FD0EDBCFE9FFFE0EDBCFEAFFEF50200DB4
:1004A000F350E66EDECFE9FFDDCFEAFF020EE9266C
:1004B000000EEA22E552E750EF6EFD0EDBCFE9FFBA
:1004C000FE0EDBCFEAFFEF50E840E840E8401F0BAC
:1004D000E66EDECFE9FFDDCFEAFF030EE926000E70
:1004E000EA22E552E750EF6EFD0EDB2AFE0E01E335
:1004F000DB2AFD0EDBCFE9FFFE0EDBCFEAFFEF507C
:10050000030B006EDECFE9FFDDCFEAFF020EE92626
:10051000000EEA220050EF12FD0EDBCFE9FFFE0EC7
:10052000DBCFEAFFEF50E00BE840E840E8401F0B6C
:10053000006EDECFE9FFDDCFEAFF020EE926000EF6
:10054000EA220050EF12FD0EDB2AFE0E01E3DB2A49
:10055000FD0EDBCFE9FFFE0EDBCFEAFFEF50E66ECC
:10056000DECFE9FFDDCFEAFFEE52E552E750EF6E56
:10057000FD0EDB2AFE0E01E3DB2AFD0EDBCFE9FFD9
:10058000FE0EDBCFEAFFEF50E66EDECFE9FFDDCFF8
:10059000EAFFE552E750EF6E020EE15C02E2E16A2B
:1005A000E552E16EE552E7CFD9FF1200D9CFE6FF61
:1005B000E1CFD9FF020EE126FE0EDB5005E1180E59
:1005C000DE6E0F0EDD6E04D01C0EDE6E0F0EDD6EC5
:1005D000F90EDBCFE6FFD950FA0FE96EFF0EDA20F5
:1005E000EA6EEECFE6FFEECFE6FFEECFE6FFEFCF0F
:1005F000E6FFDECFE6FFDDCFE6FF0FDE006E070E83
:10060000E15E0050020EE15C02E2E16AE552E16E59
:10061000E552E7CFD9FF1200D9CFE6FFE1CFD9FFEE
:10062000020EE126FE0EDB50040A21E0070A1AE062
:10063000010A13E0030A0CE0010A05E0140EDE6E65
:100640000F0EDD6E19D0000EDE6E0F0EDD6E14D0B3
:10065000040EDE6E0F0EDD6E0FD0080EDE6E0F0E76
:10066000DD6E0AD00C0EDE6E0F0EDD6E05D0100EA4
:10067000DE6E0F0EDD6E00D0F90EDBCFE6FFD95037
:10068000FA0FE96EFF0EDA20EA6EEECFE6FFEECF4C
:10069000E6FFEECFE6FFEFCFE6FFDECFE6FFDDCFF2
:1006A000E6FFBBDD006E070EE15E0050020EE15C6E
:1006B00002E2E16AE552E16EE552E7CFD9FF1200AE
:1006C000D9CFE6FFE1CFD9FF030EE1260F0140B7F6
:1006D00004D0F10E6F166F8611D00F0130B705D020
:1006E000F10E6F16060E6F1209D00F0120B704D05D
:1006F000F10E6F166F8402D0000E71D0F70EDB5032
:10070000030B606EF70EDBB61AD0F70EE66ED9500B
:10071000FB0FE96EFF0EDA20EA6EEECFE6FFEECFBA
:10072000E6FFEECFE6FFEFCFE6FF610EE66E0F0EBF
:10073000E66E73DD006E070EE15E005018D0E668CD
:10074000D950FB0FE96EFF0EDA20EA6EEECFE6FF1E
:10075000EECFE6FFEECFE6FFEFCFE6FF610EE66EEF
:100760000F0EE66E5ADD006E070EE15E0050F80EC9
:10077000DB50656EF70EDBAC658CD950010FE96E6E
:10078000DACFEAFF660EEE6E0F0EED6EDF6AF80E40
:10079000DB50DF5C1FE2DF50E76EF90EDBCFE9FFD5
:1007A000FA0EDBCFEAFFE750E926000EEA22EF500F
:1007B000E66EDF50E76E010EDBCFE9FF020EDBCF06
:1007C000EAFFE750E926000EEA22E552E750EF6E15
:1007D000DF2ADDD76086F10E6F16010E00D0006EA5
:1007E000030EE15C02E2E16AE552E16E0050E5527F
:1007F000E7CFD9FF1200D9CFE6FFE1CFD9FF040E32
:10080000E126F70EDBCFE9FFF80EDBCFEAFFEF6A58
:1008100060AE2AD0F10E6F16010EF36E030EF3CF09
:10082000DBFFA49074AE08D0F70EDBCFE9FFF80E23
:10083000DBCFEAFFEF86749E60A415D0070E60142C
:10084000006EF70EDBCFE9FFF80EDBCFEAFF0050BA
:10085000EF12010E006EF70EDBCFE9FFF80EDBCFD3
:10086000EAFF0050EF1634D00F0150AF2FD0F10E39
:100870006F160A0E6F12030EDB6AA49274AC08D0D6
:10088000F70EDBCFE9FFF80EDBCFEAFFEF86749CB3
:10089000070E5015006EF70EDBCFE9FFF80EDBCF29
:1008A000EAFF0050EF12F70EDBCFE9FFF80EDBCFC7
:1008B000EAFFEFCF00F0020E005C07E2F70EDBCF9D
:1008C000E9FFF80EDBCFEAFFEF8E02D0000E87D0F3
:1008D0000F0E6514E66EF90EDBCFE9FFFA0EDBCFE3
:1008E000EAFFE552E750EF6E65AC07D0F70EDBCFBD
:1008F000E9FFF80EDBCFEAFFEF8C62A619D0F70E06
:10090000DBCFE9FFF80EDBCFEAFFEF8AF70EE66EEA
:10091000FD0EDBCFE6FFFE0EDBCFE6FF610EE66EDF
:100920000F0EE66E5ADD006E050EE15E005010D02F
:10093000E668FD0EDBCFE6FFFE0EDBCFE6FF610EC5
:10094000E66E0F0EE66E49DD006E050EE15E0050AC
:10095000D950010FE96EDACFEAFF660EEE6E0F0E88
:10096000ED6EDF6AF90EDBCFE9FFFA0EDBCFEAFFAF
:10097000EF50DF5C1FE2DF50E76E010EDBCFE9FFD7
:10098000020EDBCFEAFFE750E926000EEA22EF5025
:10099000E66EDF50E76EFB0EDBCFE9FFFC0EDBCF30
:1009A000EAFFE750E926000EEA22E552E750EF6E33
:1009B000DF2AD8D7F10E6F16A4AE08D0F70EDBCF22
:1009C000E9FFF80EDBCFEAFFEF88A49E030EDB50B1
:1009D00002E0609E02D00F01509F010E00D0006E19
:1009E000040EE15C02E2E16AE552E16E0050E5527C
:0609F000E7CFD9FF120061
:0A09F600D9CFE6FFE1CFD9FF080ECC
:100A0000E126020EDB6A030EDB6ABE0EE66EE66AC4
:100A100097EC0DF0E552E55289809290898292928E
:100A2000898492948986929689889298898A929AE2
:100A30008B8E949E04EC00F061EC08F0AEEC09F0B3
:100A4000000EE66EE66AE1EC0AF0E552E5525CEC77
:100A50000CF096EC0BF0010EE66E0C0EE66E3BEC25
:100A60000CF0E552E552E66A0B0EE66E3BEC0CF03C
:100A7000E552E552440EE66E0A0EE66E3BEC0CF0D3
:100A8000E552E552040EE66E070EE66E3BEC0CF006
:100A9000E552E5520F0EE66E080EE66E3BEC0CF0EA
:100AA000E552E552E66A090EE66E3BEC0CF0E552C3
:100AB000E552020EE66E450EE66E3BEC0CF0E5529A
:100AC000E552020EE66E420EE66E3BEC0CF0E5528D
:100AD000E552020EE66E430EE66E3BEC0CF0E5527C
:100AE000E552C00EE66E4B0EE66E3BEC0CF0E552A6
:100AF000E552C00EE66E510EE66E3BEC0CF0E55290
:100B0000E552C00EE66E530EE66E3BEC0CF0E5527D
:100B1000E552C00EE66E550EE66E3BEC0CF0E5526B
:100B2000E552C00EE66E570EE66E3BEC0CF0E55259
:100B3000E552010EE66E5A0EE66E3BEC0CF0E55205
:100B4000E552E66A080EE66E010EE66E6AEC0BF000
:100B5000E552E552E552C10EE66E140EE66E010E48
:100B6000E66E6AEC0BF0E552E552E552E66A0D0ED0
:100B7000E66E010EE66E6AEC0BF0E552E552E552C8
:100B8000010EE66EE668E66E6AEC0BF0E552E552A1
:100B9000E552E66A080EE66E020EE66E6AEC0BF0AF
:100BA000E552E552E552C10EE66E140EE66E020EF7
:100BB000E66E6AEC0BF0E552E552E552010EE66E88
:100BC000E668020EE66E6AEC0BF0E552E552E5527D
:100BD000E66A080EE66E040EE66E6AEC0BF0E5526D
:100BE000E552E552C10EE66E140EE66E040EE66E98
:100BF0006AEC0BF0E552E552E552010EE66EE6684E
:100C0000040EE66E6AEC0BF0E552E552E552E66A38
:100C1000080EE66E030EE66E6AEC0BF0E552E55246
:100C2000E552C10EE66E140EE66E030EE66E6AEC39
:100C30000BF0E552E552E552010EE66EE668030E52
:100C4000E66E6AEC0BF0E552E552E552040EDB6A03
:100C5000020EF36E050EF3CFDBFF040EDBCFE6FFD3
:100C6000050EDBCFE6FFE66AE66E1CEC0BF0E55204
:100C7000E552E552E552040EDBCFE6FF050EDBCF71
:100C8000E6FF010EE66E050EE66E1CEC0BF0E5527B
:100C9000E552E552E552040EDBCFE6FF050EDBCF51
:100CA000E6FF020EE66E050EE66E1CEC0BF0E5525A
:100CB000E552E552E552040EDBCFE6FF050EDBCF31
:100CC000E6FF030EE66E050EE66E1CEC0BF0E55239
:100CD000E552E552E552040EDBCFE6FF050EDBCF11
:100CE000E6FF040EE66E050EE66E1CEC0BF0E55218
:100CF000E552E552E552040EDBCFE6FF050EDBCFF1
:100D0000E6FFE66EE66E1CEC0BF0E552E552E552AE
:100D1000E552040EDBCFE6FF050EDBCFE6FF060E45
:100D2000E66E050EE66E1CEC0BF0E552E552E55260
:100D3000E552040EDBCFE6FF050EDBCFE6FF070E24
:100D4000E66E050EE66E1CEC0BF0E552E552E55240
:100D5000E5528980929089829292898492948986C0
:100D6000929689889298898A929A8B8E949E04ECA6
:100D700000F061EC08F0AEEC09F0000EE66EE66AF9
:100D8000E1EC0AF0E552E5525CEC0CF096EC0BF06D
:100D9000010EE66E0C0EE66E3BEC0CF0E552E552F1
:100DA000E66A0B0EE66E3BEC0CF0E552E552440EA3
:100DB000E66E0A0EE66E3BEC0CF0E552E552040ED0
:100DC000E66E070EE66E3BEC0CF0E552E5520F0EB8
:100DD000E66E080EE66E3BEC0CF0E552E552E66A74
:100DE000090EE66E3BEC0CF0E552E552020EE66EA3
:100DF000450EE66E3BEC0CF0E552E552020EE66E57
:100E0000420EE66E3BEC0CF0E552E552020EE66E49
:100E1000430EE66E3BEC0CF0E552E552C00EE66E7A
:100E20004B0EE66E3BEC0CF0E552E552C00EE66E62
:100E3000510EE66E3BEC0CF0E552E552C00EE66E4C
:100E4000530EE66E3BEC0CF0E552E552C00EE66E3A
:100E5000550EE66E3BEC0CF0E552E552C00EE66E28
:100E6000570EE66E3BEC0CF0E552E552010EE66ED5
:100E70005A0EE66E3BEC0CF0E552E552E66A080EBF
:100E8000E66E010EE66E6AEC0BF0E552E552E552B5
:100E9000C10EE66E140EE66E010EE66E6AEC0BF005
:100EA000E552E552E552E66A0D0EE66E010EE66E7B
:100EB0006AEC0BF0E552E552E552010EE66EE6688B
:100EC000E66E6AEC0BF0E552E552E552E66A080E72
:100ED000E66E020EE66E6AEC0BF0E552E552E55264
:100EE000C10EE66E140EE66E020EE66E6AEC0BF0B4
:100EF000E552E552E552010EE66EE668020EE66E38
:100F00006AEC0BF0E552E552E552E66A080EE66E31
:100F1000040EE66E6AEC0BF0E552E552E552C10EA6
:100F2000E66E140EE66E040EE66E6AEC0BF0E55209
:100F3000E552E552010EE66EE668040EE66E6AECD6
:100F40000BF0E552E552E552E66A080EE66E030E36
:100F5000E66E6AEC0BF0E552E552E552C10EE66E24
:100F6000140EE66E030EE66E6AEC0BF0E552E552E7
:100F7000E552010EE66EE668030EE66E6AEC0BF0D3
:100F8000E552E552E552040EDB6A020EF36E050EE1
:100F9000F3CFDBFF040EDBCFE6FF050EDBCFE6FF72
:100FA000E66AE66E1CEC0BF0E552E552E552E552BE
:100FB000040EDBCFE6FF050EDBCFE6FF010EE66E8B
:100FC000050EE66E1CEC0BF0E552E552E552E552DB
:100FD000040EDBCFE6FF050EDBCFE6FF020EE66E6A
:100FE000050EE66E1CEC0BF0E552E552E552E552BB
:100FF000040EDBCFE6FF050EDBCFE6FF030EE66E49
:10100000050EE66E1CEC0BF0E552E552E552E5529A
:10101000040EDBCFE6FF050EDBCFE6FF040EE66E27
:10102000050EE66E1CEC0BF0E552E552E552E5527A
:10103000040EDBCFE6FF050EDBCFE6FFE66EE66EC5
:101040001CEC0BF0E552E552E552E552040EDBCF05
:10105000E6FF050EDBCFE6FF060EE66E050EE66E3A
:101060001CEC0BF0E552E552E552E552040EDBCFE5
:10107000E6FF050EDBCFE6FF070EE66E050EE66E19
:101080001CEC0BF0E552E552E552E552DE6ADD6AF2
:10109000DECF00F0DDCF01F0100E005C270E01580E
:1010A00005E2DF2A010E01E3DB2AF2D7EFD7080EB3
:1010B000E15C02E2E16AE552E16EE552E7CFD9FF79
:0210C00012001C
:0E10C200938093928A921200D9CFE6FFE1CF7D
:1010D000D9FF93908A92D950FE0FE96EFF0EDA2065
:1010E000EA6EEF50800B02E0818001D081908A820D
:1010F000D950FE0FE96EFF0EDA20EA6EEF50800B3A
:1011000002E0818001D081908A92D950FE0FE96E71
:10111000FF0EDA20EA6EEF50400B02E0818001D032
:1011200081908A82D950FE0FE96EFF0EDA20EA6EB6
:10113000EF50400B02E0818001D081908A92D9501B
:10114000FE0FE96EFF0EDA20EA6EEF50200B02E090
:10115000818001D081908A82D950FE0FE96EFF0E06
:10116000DA20EA6EEF50200B02E0818001D08190FE
:101170008A92D950FE0FE96EFF0EDA20EA6EEF5028
:10118000100B02E0818001D081908A82D950FE0F3D
:10119000E96EFF0EDA20EA6EEF50100B02E081805C
:1011A00001D081908A92D950FE0FE96EFF0EDA20AD
:1011B000EA6EEF50080B02E0818001D081908A82B4
:1011C000D950FE0FE96EFF0EDA20EA6EEF50080BE1
:1011D00002E0818001D081908A92D950FE0FE96EA1
:1011E000FF0EDA20EA6EEF50040B02E0818001D09E
:1011F00081908A82D950FE0FE96EFF0EDA20EA6EE6
:10120000EF50040B02E0818001D081908A92D95086
:10121000FE0FE96EFF0EDA20EA6EEF50020B02E0DD
:10122000818001D081908A82D950FE0FE96EFF0E35
:10123000DA20EA6EEF50020B02E0818001D081904B
:101240008A92D950FE0FE96EFF0EDA20EA6EEF5057
:10125000010B02E0818001D081908A82D950FE0F7B
:10126000E96EFF0EDA20EA6EEF50010B02E081809A
:1012700001D081908A929380E552E7CFD9FF120086
:10128000D9CFE6FFE1CFD9FFE65293808A928A72E6
:10129000D9CFE9FFDACFEAFF8150010B02E0EF8EF0
:1012A00001D0EF9E8A728A72D9CFE9FFDACFEAFFC6
:1012B0008150010B02E0EF8C01D0EF9C8A728A72A0
:1012C000D9CFE9FFDACFEAFF8150010B02E0EF8AC4
:1012D00001D0EF9A8A728A72D9CFE9FFDACFEAFF9A
:1012E0008150010B02E0EF8801D0EF988A728A7278
:1012F000D9CFE9FFDACFEAFF8150010B02E0EF8698
:1013000001D0EF968A728A72D9CFE9FFDACFEAFF6D
:101310008150010B02E0EF8401D0EF948A728A724F
:10132000D9CFE9FFDACFEAFF8150010B02E0EF826B
:1013300001D0EF928A728A72D9CFE9FFDACFEAFF41
:101340008150010B02E0EF8001D0EF908A92DF50D4
:0C13500000D0E552E552E7CFD9FF1200B3
:04135C00E668020E2F
:10136000E66E060EE66E070EE66E050EE66E010EE2
:10137000E66E13EC00F0006E060EE15E00509398EE
:1013800081981200D9CFE6FFE1CFD9FF0F0EE126F9
:101390006050800B04E10F015051800B58E0D95090
:1013A0000D0FE66E000EDA20E66ED9500C0FE66ED9
:1013B000000EDA20E66ED950040FE66E000EDA2039
:1013C000E66ED9CFE6FFDACFE6FFFBEC03F0006E66
:1013D000080EE15E00500E0EDB6A080EF36E0E0E74
:1013E000DBCFF4FFF350F45C17E2ACA2FED7D95088
:1013F000040F006EDACF01F00E0EDB500F01002457
:10140000E96E000E0120EA6EEF50E66EAEEC0DF0D4
:10141000E5520E0EDB2AE1D70E0EDB6A080EF36EE4
:101420000E0EDBCFF4FFF350F45C11E2D950040F41
:10143000006EDACF01F00E0EDB500F010024E96ED2
:10144000000E0120EA6EEF6A0E0EDB2AE7D70F0EC0
:10145000E15C02E2E16AE552E16EE552E7CFD9FFD5
:101460001200D9CFE6FFE1CFD9FF0E0EE1260D0E17
:10147000DB6A080EF36E0D0EDBCFF4FFF350F45C65
:1014800011E2D950040F006EDACF01F00D0EDB50DF
:101490000F010024E96E000E0120EA6EEF6A0D0EC6
:1014A000DB2AE7D7FD0EDB50E76E040EE7CFDBFF4C
:1014B0000F014051080B06E03051080B03E02051AA
:1014C000080B15E1FC0EE66E080EE66ED950040F0F
:1014D000E66E000EDA20E66E020EE66EE66AE66A58
:1014E000E66A60EC03F0006E080EE15E00500E0E3E
:1014F000E15C02E2E16AE552E16EE552E7CFD9FF35
:101500001200D8CFE4FFE0CFE4FFE46EDACFE4FFCF
:10151000E2CFDAFFE9CFE4FFEACFE4FFF6CFE4FF62
:10152000F7CFE4FFF5CFE4FFF3CFE4FFF4CFE4FF20
:10153000FACFE4FF00EE08F0020EE80403E3EECF7A
:10154000E4FFFBD700EE00F0060EE80403E3EECF65
:10155000E4FFFBD7E6525AEC0DF0066E076A06BEB2
:10156000076806C0E6FF07C0E6FF7BDFE552E552ED
:10157000E55200EE05F0060EE80403E3E5CFEDFFCB
:10158000FBD700EE09F0020EE80403E3E5CFEDFF20
:10159000FBD7E5CFFAFFE5CFF4FFE5CFF3FFE5CFCB
:1015A000F5FFE5CFF7FFE5CFF6FFE5CFEAFFE5CFA3
:1015B000E9FFE5CFDAFFE550E5CFE0FFE5CFD8FF63
:0215C000100019
:0E15C200D9CFE6FFE1CFD9FF020EE126FD0EE4
:1015D000DBCF00F0FE0EDBCF01F00050800E0112D9
:1015E00000C0DEFF01C0DDFF899A929A010EDBCFB9
:1015F000E6FF79EC0DF0E552DFCFE6FF79EC0DF078
:10160000E552898A929A8B9E949E010EDBCFE6FF6B
:1016100079EC0DF0E552DFCFE6FF79EC0DF0E55205
:101620008B8E949E020EE15C02E2E16AE552E16E6D
:10163000E552E7CFD9FF1200D9CFE6FFE1CFD9FFBE
:10164000020EE126FD0EDB50DE6EDD6AFB0EDBCF07
:1016500002F0FC0EDBCF03F0FF0E02160F0E031696
:10166000DECF04F0DDCF05F00438046AF00B056E20
:10167000000E0416700E051602500410006E035082
:101680000510016EFB0E00C0DBFFFC0E01C0DBFF8E
:10169000FE0EDBCFE6FFDFEC0BF0E552FC0EDBCFFE
:1016A000E6FF79EC0DF0E552FB0EDBCFE6FF79ECBF
:1016B0000DF0E552FE0EDBCFE6FF0DEC0CF0E5522F
:1016C000020EE15C02E2E16AE552E16EE552E7CF2B
:0416D000D9FF12002C
:0C16D400D9CFE6FFE1CFD9FFE652FE0EB1
:1016E000DBCFE6FFDFEC0BF0E552DF6ADFCFE6FF92
:1016F00065EC08F0E552FD0EDB50DF6EDFCFE6FF54
:1017000065EC08F0E552FC0EDB50DF6EDFCFE6FF44
:1017100065EC08F0E552FE0EDBCFE6FF0DEC0CF0B9
:10172000E552E552E552E7CFD9FF12003C0EE66ED6
:10173000E66A010EE66ECEDFE552E552E5523C0E5A
:10174000E66EE66A020EE66EC5DFE552E552E55248
:101750003C0EE66EE66A030EE66EBCDFE552E5522D
:10176000E5523C0EE66EE66A040EE66EB3DFE55225
:10177000E552E552180EE66EE66A010EE66EAADF45
:10178000E552E552E552180EE66EE66A020EE66E86
:10179000A1DFE552E552E552180EE66EE66A030E49
:1017A000E66E98DFE552E552E552180EE66EE66AFF
:0E17B000040EE66E8FDFE552E552E5521200A0
:0217BE00D9CF81
:1017C000E6FFE1CFD9FFFE0EDB50060A1FE0030A59
:1017D0001AE0010A15E0070A10E0010A0BE0030A0B
:1017E00006E0010A01E015D08990929012D089920A
:1017F00092920FD0899492940CD08996929609D0A7
:101800008998929806D0899A929A03D08B9E949E3A
:1018100000D0E552E7CFD9FF1200D9CFE6FFE1CFE4
:10182000D9FFFE0EDB50060A1FE0030A1AE0010A88
:1018300015E0070A10E0010A0BE0030A06E0010ABE
:1018400001E015D08980929012D0898292920FD0B7
:10185000898492940CD08986929609D0898892982E
:1018600006D0898A929A03D08B8E949E00D0E5523E
:06187000E7CFD9FF1200D2
:0A187600D9CFE6FFE1CFD9FFE6521B
:1018800089909290E66A79EC0DF0E552DF6EFE0EDB
:10189000DBCFE6FF79EC0DF0E552DF6EFD0EDBCF1E
:1018A000E6FF79EC0DF0E552DF6E89809290E5520B
:1018B000E552E7CFD9FF1200300EE66EE66ADBDFB5
:1018C000E552E552100EE66EE66AD5DFE552E552C6
:1018D0001200D9CFE6FFE1CFD9FF020EE1268990B1
:1018E0009290800EE66E79EC0DF0E552FE0EDBCFA5
:1018F000E6FF79EC0DF0E552DCEC0DF0E76E010E41
:10190000E7CFDBFF89809290DB50006E020EE15C36
:1019100003E200D0E16AE552E16E0050E552E7CF04
:04192000D9FF1200D9
:0C192400060EF66E000EF76E000EF86E58
:1019300000010900F550656F0900F550666F03E17D
:10194000656701D03DD00900F550606F0900F55082
:10195000616F0900F550626F09000900F550E96EEA
:101960000900F550EA6E090009000900F550636F9F
:101970000900F550646F09000900F6CF67F0F7CF52
:1019800068F0F8CF69F060C0F6FF61C0F7FF62C091
:10199000F8FF0001635302E1645307E00900F550CA
:1019A000EE6E6307F8E26407F9D767C0F6FF68C018
:1019B000F7FF69C0F8FF00016507000E665BBFD73F
:0219C000120013
:0E19C200D9CFE6FFDACFE6FFE1CFD9FFE2CFC3
:1019D000DAFFAC6AAB6AFD0EDBB0AC88DBA202D0EA
:1019E000AC8CAB8CDBB4AC8EDBA602D0AB8801D068
:1019F000AB8ADBB8AC849E98DBBAAB86DBAC02D09A
:101A00009D8A01D09D9A9E9ADBAE02D09D8801D01E
:101A10009D98FB0EDB50AF6EFB0EFC0EDBCF01F092
:101A200001C000F0016A0050B06EAC8AAB8E949C8D
:101A3000948EAC50100B04E0AC50800B01E1948C00
:0C1A4000E552E5CFDAFFE7CFD9FF120036
:041A4C00D9CFE6FF09
:101A5000DACFE6FFE1CFD9FFE2CFDAFF3F0EC716BC
:101A6000C66AFD0EDB50C612FB0EDB50C712FC0E21
:101A7000DB50030A09E0010A04E0020A06E1C78C10
:101A800004D0C78CC68801D0C688FD0EDB50050A7D
:101A900005E0010A05E19486928A03D0948601D07C
:101AA00094969488949AC68AE552E5CFDAFFE7CFF8
:041AB000D9FF120048
:0C1AB400D9CFE6FFDACFE6FFE1CFD9FF83
:101AC000E2CFDAFFE652F20E00016A17ABAC03D0A8
:101AD0006A91ABB06A81ABB46A85ABB26A87AE502B
:101AE000DF6EDF50E552E552E5CFDAFFE7CFD9FFF1
:021AF0001200E2
:0E1AF200D9CFE6FFDACFE6FFE1CFD9FFE2CF92
:101B0000DAFFE652C950DF6E9E96C69EFD0EDB5090
:101B1000C96EC6AE02D0FF0E03D09EA6FED7000E41
:0E1B2000E552E552E5CFDAFFE7CFD9FF12001C
:021B2E00FF0EA8
:101B3000E3500B6EEF0E01D0F30EE76EE72E9EEF33
:101B40000DF00C0E0A6EE76AE72EA4EF0DF00A2ED8
:0C1B5000A3EF0DF00B2E9CEF0DF0120027
:041B5C00D9CFE6FFF8
:101B6000DACFE6FFE1CFD9FFE2CFDAFFACAC04D0A9
:101B7000AC9000016AB3AC80FD0EDB50AD6EE55257
:0A1B8000E5CFDAFFE7CFD9FF12002E
:061B8A000A0EE66EE66A99
:101B90007C0EE66EE1EC0CF0E552E552E552D08E9B
:101BA000F28EF28C12009EAAFED75AEC0DF0E66E71
:081BB000AEEC0DF0E55212004D
:081BB800D9CFE6FFDACFE6FF0A
:101BC000E1CFD9FFE2CFDAFFE652C950DF6E9E9631
:101BD000C96A9EA6FED7C950E552E552E5CFDAFFA5
:061BE000E7CFD9FF12005F
:0A1BE600000EF36E00EE00F00D0E8D
:101BF00001D81200EA6002D0EE6AFCD7F350E96027
:061C00001200EE6AFCD7A1
:0A1C06001CEE00F02CEE00F0F86A6E
:101C1000099C92EC0CF00EEC00F0FBEC04F0FBD70E
:021C20001200B0
:00000001FF
